:1010A900446174653A002564002F256400202020DE
:1010B9000054696D653A003A256400200044696767
:1010C9006974616C20436C6F636B00205573696EA2
:1010D900672038303531202000436972637569749F
:1010E9002044696765737400536872696E696B653A
:0410F90074616E00B0
:101226000116010208000102130001020F0000026C
:0B123600110000020D0000020B000080
:06113000D2917F017E0058
:10113600E4FDFCC3ED9FEE6480F8EC6480985015E6
:10114600E4FBFA0BBB00010ABA04F8BBFBF50DBDC4
:0511560000010C80DE29
:01115B002271
:08128500D290121130C2912237
:10125600A907E954F0F590121285E9C454F0F59007
:03126600021285EC
:08128D00C290121130C291223F
:10126900A907E954F0F59012128DE9C454F0F590EC
:0312790002128DD1
:061188007B007A007922D1
:10118E008B278A288929AB27AA28A929120E25FF81
:10119E00601012125674012529F529E43528F52818
:0311AE0080E422B8
:101242007F021212697F281212697F0C1212697FC3
:04125200010212691A
:09127C00D2A1D2A0C2A1C2A0229D
:07129500C2A1D2A0D2A122E8
:0F10FD0012127C7FD012110CE4FF12110CE4FFD1
:10110C00E4FEEF30E704D2A18002C2A1D2A0EF2509
:10111C00E0FFC2A00EBE08EAD2A1D2A0A2A1E43385
:03112C00FFC2A05F
:01112F00229D
:10115C00E4FED2A1FDEE25E0FED2A030A0FB30A132
:10116C0003430601C2A00DBD08EBEF6004C2A180D1
:0B117C0002D2A1D2A0C2A0D2A1AF06F7
:011187002245
:0511B1007F0112115C3A
:0211B600AD0783
:1011B800ED54F0FF3395E0FEEF7804CEA2E713CEAE
:1011C80013D8F875F00AA4FFED540F2FFF3395E0FC
:0111D800FE18
:0111D90022F3
:04120100AB07AA0687
:101205007C007D0A120E3EEFC4F8540FC868FF8FAC
:1012150022AE02AF037C007D0A120E3EE5224DFF91
:0112250022A6
:100F3E007F801212697BFF7A1079A912118E752AA1
:100F4E00FF752B10752CAF85082D85092E7B007A29
:100F5E0000792212085C121188752AFF752B107504
:100F6E002CB285132D85142E7B007A00792212085F
:100F7E005C121188752AFF752B10752CB2E50C24A6
:100F8E00D0F52EE50B3407F52D7B007A0079221271
:100F9E00085C1211887BFF7A1079B612118E7FC011
:100FAE001212697BFF7A1079BA12118E752AFF75AB
:100FBE002B10752CAF850F2D85102E7B007A0079A6
:100FCE002212085C121188752AFF752B10752CC021
:100FDE0085112D85122E7B007A00792212085C1263
:100FEE001188752AFF752B10752CC0850D2D850E59
:100FFE002E7B007A00792212085C1211887BFF7A10
:0F100E001079C412118E7BFF7A1079B602118E01
:100B5C007F0E121269E515C394074003020CE0E501
:100B6C001564036003020C10AE0BAF0CFC7D041279
:100B7C000E3E8D1720A37C0509E50970020508308F
:100B8C00A3FDE517B40115E51464024513700DE5DA
:100B9C0009641C45087005F508750901E517701501
:100BAC00E51464024513700DE509641D45087005D4
:100BBC00F508750901E509641F45087008E514641A
:100BCC000445136018E514640645136010E51464BD
:100BDC000945136008E51464114513700675080087
:100BEC00750901E509642045087005F508750901CA
:100BFC00120F3E20A20675150530A2FD7F8512123C
:100C0C0069020B6BE5156402702E20A31B0514E51D
:100C1C00147002051330A3FDE514640D4513700523
:100C2C00F513751401120F3E20A20675150330A2A0
:100C3C00FD7F8812126980CCE5156401702D20A30C
:100C4C001A050CE50C7002050B30A3FDE50C641EB7
:100C5C00450B7004F50BF50C120F3E20A206751512
:100C6C000230A2FD7F8D12126980CDE515640570EE
:100C7C002D20A31A0510E5107002050F30A3FDE519
:100C8C00106418450F7004F50FF510120F3E20A2DA
:100C9C000675150630A2FD7FC512126980CDE515CB
:100CAC0064066003020B6120A31A0512E5127002A0
:100CBC00051130A3FDE512643C45117004F511F5E6
:100CCC0012120F3E20A20675150A30A2FD7FC81223
:050CDC00126980CA222C
:100CE1001212427BFF7A1079C612118E7FC0121246
:100CF100697BFF7A1079D412118E7F907E011211D7
:100D0100367F011212697BFF7A1079E212118E7F10
:100D1100C01212697BFF7A1079F112118E7F907ED9
:100D21000112113630A403020DDA1210FD12110561
:100D31007F0112110C7F0112110C7F011211077F2B
:100D41008012110C121295751501120B5CAF12AEC7
:100D510011121201EF3395E0F5118F12E4FFFE122B
:100D61001201EF3395E0F50D8F0EAF10AE0F121299
:100D710001EF3395E0F50F8F10AF0CAE0B1212019E
:100D8100EF3395E0F50B8F0CAF14AE13121201EF98
:100D91003395E0F5138F14AF09AE08121201EF334A
:100DA10095E0F5088F091210FDAF1212110CAF106A
:100DB10012110CAF1612110CAF0912110CAF141253
:100DC100110CAF0C12110C7F8012110C1212957FB5
:100DD100011212697F0C12126912127C7FD012115A
:100DE1000712127C7FD112110C1211B18E0D8F0ED0
:100DF1001211B18E118F121211B18E0F8F101211AB
:100E0100B18F161211B18E088F091211B18E138F85
:100E1100141211B18E0B8F0C121295120F3E12117A
:040E210032020D2567
:0300000002101DCE
:0C101D00787FE4F6D8FD75813A0210647B
:100E2500BB010689828A83E0225002E722BBFE02CB
:090E3500E32289828A83E49322FE
:100E3E00C2D5EC30E709B2D5E4C39DFDE49CFCEECF
:100E4E0030E715B2D5E4C39FFFE49EFE120EB3C386
:100E5E00E49DFDE49CFC8003120EB330D507C3E481
:060E6E009FFFE49EFE223E
:10080000E536242AF8E60536227827300702782ACA
:10081000E475F001120F08020E252000EB7F2ED2A6
:10082000008018EF540F2490D43440D4FF30040BD0
:10083000EF24BFB41A0050032461FFE537600215AE
:1008400037053AE53A7002053930070D7827E47527
:10085000F001120F08EF020EA10211DA7403D207A1
:100860008003E4C207F5368B278A288929E4F53707
:10087000F539F53AE53760077F2012083B80F575BA
:1008800038FFC201C200C202C203C205C206C208CA
:10089000120809FF700D3007057F0012084CAF3AAF
:1008A000AE3922B4255FC2D5C204120809FF24D094
:1008B000B40A00501A75F00A783730D50508B6FF2B
:1008C0000106C6A426F620D5047002D20380D924DE
:1008D000CFB41A00EF5004C2E5D204020A4CD20190
:1008E00080C6D20080C0D20280BCD2D580BAD205E8
:1008F00080B47F2012083B2002077401B537004006
:10090000F1120800FF12083B020874D208D20680D8
:1009100095120800FB120800FA120800F94A4B7001
:1009200006791D7A0B7BFF20022EE537602A7E00B8
:100930008E82758300120E7460060EEE653870F0BC
:10094000C2D5EBC0E0EAC0E0E9C0E0EE120A93D005
:10095000E0F9D0E0FAD0E0FB120E25FF60AAEBC070
:10096000E0EAC0E0E9C0E012083BD0E02401F9D0A1
:10097000E03400FAD0E0FBE5380460DCD538D980FB
:10098000877BFF7A0A798FD202809C791080027966
:1009900008C206C2088008D2D5790A8004790AC242
:1009A000D5E538047002F538E4FAFDFEFF120800C0
:1009B000FC7B08200113120800FD7B1030000A1296
:1009C0000800FE120800FF7B20EC3382D592D55040
:1009D00013C3E43000069FFFE49EFEE42001039D64
:1009E000FDE49CFCE4CBF8C201EC700CCFCECDCC86
:1009F000E824F8F870F38017C3EF33FFEE33FEED11
:100A000033FDEC33FCEB33FB994002FB0FD8E9EBF1
:100A1000300105F8D0E0C448B201C0E00AEC4D4E08
:100A20004F78207B0070C2EAB5380040BCC0E012AD
:100A30000A95D0F0D0E0200104C4C0E0C4B201C0E7
:100A4000F0120824D0F0D5F0EB020874120F180948
:100A50001153098B5808E24C08DE42098F4F099761
:0F0A60004409974908F743099D550981460981C3
:100A6F00450981470B3D5008E62D08EA2E090D2B4D
:100A7F0008EE23090B200B262A08A64800000905BB
:100A8F003F3F3F00790AA2D5200314300509B91062
:100A9F00020404B9080104A2D52006025001042063
:100AAF0002689202B537005034C0E07F203003193E
:100ABF007F30A20272067205500F120AECC202C2F8
:100ACF0006C205C2087F30800F300503E9C0E0126F
:100ADF00083B300503D0E0F9D0E0B537CC3005172F
:100AEF007F30B9100C12083B7F583004077F788095
:100AFF0003B9080312083B3002057F2D02083B7F24
:100B0F00202008F87F2B2006F322920280CF286E38
:100B1F00756C6C2900D2011208003001F8C20178FF
:100B2F003730D50108F60208A62D50434958120850
:100B3F00002403B405004001E4900B389312082CF5
:0D0B4F00743A12082CD20375370402098B8A
:10102900020CE1E493A3F8E493A34003F68001F2F0
:1010390008DFF48029E493A3F85407240CC8C333C8
:10104900C4540F4420C8834004F456800146F6DF97
:10105900E4800B0102040810204080901226E47EEF
:10106900019360BCA3FF543F30E509541FFEE4938C
:10107900A360010ECF54C025E060A840B8E493A353
:10108900FAE493A3F8E493A3C8C582C8CAC583CA7E
:10109900F0A3C8C582C8CAC583CADFE9DEE780BE36
:0112410000AC
:100E7400BB010CE58229F582E5833AF583E0225033
:100E840006E92582F8E622BBFE06E92582F8E2227D
:0D0E9400E58229F582E5833AF583E4932297
:100EA100BB010689828A83F0225002F722BBFE0130
:020EB100F3222A
:100EB300BC000BBE0029EF8DF084FFADF022E4CC23
:100EC300F875F008EF2FFFEE33FEEC33FCEE9DECEC
:100ED300984005FCEE9DFE0FD5F0E9E4CEFD22ED32
:100EE300F8F5F0EE8420D21CFEADF075F008EF2F7C
:100EF300FFED33FD4007985006D5F0F222C398FD6D
:050F03000FD5F0EA2209
:100F0800FAE6FB0808E6F925F0F618E6CA3AF622EA
:100F1800D083D082F8E4937012740193700DA3A368
:100F280093F8740193F5828883E47374029368607C
:060F3800EFA3A3A380DF7C
:1011DA00EFB40A07740D1211E5740A309811A89930
:1011EA00B8130CC2983098FDA899C298B811F63075
:0711FA0099FDC299F599224D
:00000001FF
